:1000000045C0000060C000005EC000005CC0000091
:100010005AC0000058C0000056C0000054C0000084
:1000200052C0000050C000004EC000004CC0000094
:100030004AC0000048C0000046C0000044C00000A4
:1000400042C0000040C000003EC000003CC00000B4
:100050003AC0000038C0000036C0000034C00000C4
:1000600032C0000030C000002EC000002CC00000D4
:100070002AC0000028C0000026C0000024C00000E4
:1000800022C0000020C000001EC0000011241FBEBE
:10009000CFEFD0E1DEBFCDBF11E0A0E0B1E0E2EFF5
:1000A000F9E000E00BBF02C007900D92A436B10743
:1000B000D9F721E0A4E6B1E001C01D92A53AB2074C
:1000C000E1F7BDD194C49CCF2F923F924F925F92A3
:1000D0006F927F928F929F92AF92BF92CF92DF9258
:1000E000EF92FF920F931F93CF93DF93CDB7DEB7BD
:1000F00060970FB6F894DEBF0FBECDBF1C01C9825A
:10010000DA82EB82FC820D831E832F833887498736
:100110005A876B877C8749805A806B807C802DE270
:1001200032EB4DE55FE36D817E818F819885D8D379
:100130006D877E878F87988B20E030E040E05FE31B
:10014000C301B201CDD36B017C0120E030E040E976
:1001500050E469857A858B859C85C2D34B015C010F
:10016000A70196016D857E858F859889D3D2A501DB
:100170009401D1D2F1016083718382839383C7019B
:10018000B60190582D853E854F855889C3D29B0175
:10019000AC01C501B401BFD2F101648375838683CC
:1001A0009783A3019201C501B401B5D2F101608723
:1001B000718782879387C10160960FB6F894DEBF7E
:1001C0000FBECDBFDF91CF911F910F91FF90EF90A8
:1001D000DF90CF90BF90AF909F908F907F906F9067
:1001E0005F904F903F902F900895CF92DF92EF92C3
:1001F000FF920F931F93CF93DF93CDB7DEB72C976A
:100200000FB6F894DEBF0FBECDBFE2E7F1E010827B
:1002100011821282138214821582168217828091B3
:10022000A401882361F080E090E0A8E4B3E4809327
:10023000760190937701A0937801B0937901809132
:10024000A201882361F080E090E0A8E4B3EC809301
:10025000760190937701A0937801B0937901809112
:100260007001882361F080E090E0A8E4B3E480931B
:10027000720190937301A0937401B0937501809102
:10028000A101882361F080E090E0A8E4B3EC8093C2
:10029000720190937301A0937401B0937501109251
:1002A0007A0110927B0110927C0110927D01C09026
:1002B0007201D0907301E0907401F090750100918B
:1002C000760110917701209178013091790140E019
:1002D00050917B0160917C0170917D01CE0101966E
:1002E000F3DE8CE0FE013196A4E6B1E001900D92C0
:1002F0008A95E1F720E030E0A901609164017091F6
:1003000065018091660190916701E6D288231CF017
:10031000A89AA9980DC0A99AA898E4E6F1E080816E
:100320009181A281B381B05880839183A283B383EA
:1003300004E611E02AE939E949EE51E4F801608167
:10034000718182819381CCD24AD27BBD6ABD20E08B
:1003500030E0A901F8016481758186819781BCD262
:1003600088231CF0AA9AAB980DC0AB9AAA98E4E631
:10037000F1E084819581A681B781B058848395830B
:10038000A683B78304E611E020E030E040EF51E4BB
:10039000F8016481758186819781A2D220D279BDCE
:1003A00068BD20E030E0A901F80160857185828593
:1003B000938592D288231CF0AC9AAD980DC0AD9A6B
:1003C000AC98E4E6F1E080859185A285B385B058CC
:1003D00080879187A287B3872CEE31E545E052E410
:1003E00060916C0170916D0180916E0190916F012F
:1003F00077D2F5D170937900609378002C960FB680
:10040000F894DEBF0FBECDBFDF91CF911F910F914A
:10041000FF90EF90DF90CF9008958FEF84BB15BAD7
:10042000089587B3806E87BB8FB58A6A8FBD8EB5FE
:1004300089618EBD80E29EE497BD86BD089560E02F
:100440008CE090E029D1E9DFECDF60E089E291E027
:100450004FD16DD060E08BE391E04AD10BE811E021
:10046000D1E007D1F801C381C095C4FF07C060E0A7
:100470008DE491E03DD1D093A40102C01092A4017B
:10048000C6FF07C060E081E591E032D1D093A201C0
:1004900002C01092A201C5FF07C060E087E591E0AD
:1004A00027D1D093700102C010927001CC233CF48C
:1004B00060E08EE591E01CD1D093A10102C01092C2
:1004C000A10160E08DE006D190DECBCF8FB9779BA4
:1004D000FECF80E58A95F1F78FB10895CF92DF9234
:1004E000EF92FF920F931F93CF93DF936623B1F0A8
:1004F0006C016150E62EF12C8FEFE81AF80AEC0C33
:10050000FD1CE6018E010C191D098991DFDFF80140
:10051000E557FE4F8083CE15DF05A1F7DF91CF9120
:100520001F910F91FF90EF90DF90CF900895CF93A0
:10053000DF93CDB7DEB7A9970FB6F894DEBF0FBE35
:10054000CDBF87B3876087BBBB98C39A8DE78DB952
:1005500085E0E0E0F1E0DE01119601900D928A95D0
:10056000E1F789E0E5E0F1E0DE01169601900D92F9
:100570008A95E1F789E0EEE0F1E0DE011F96019057
:100580000D928A95E1F789E0E7E1F1E0DE01589606
:1005900001900D928A95E1F7C0981092A3011092F4
:1005A00071011092A00165E0CE01019697DFC09A1B
:1005B0008FEC97E00197F1F700C00000C09810920F
:1005C000A301109271011092A00169E0CE0106967C
:1005D00085DFC09A8FEC97E00197F1F700C000002B
:1005E000C0981092A301109271011092A00169E0CD
:1005F000CE010F9673DFC09A8FEC97E00197F1F769
:1006000000C00000C0981092A301109271011092D6
:10061000A00169E0CE01489661DFC09A8FEC97E0B7
:100620000197F1F700C0000089E0E0E2F1E0DE01AF
:10063000919601900D928A95E1F742E851E02CE8FD
:1006400031E0FA01DF01A41BB50B81E290E08C0FD1
:100650009D1FA80FB91F8C918193E217F30791F7A3
:10066000A9960FB6F894DEBF0FBECDBFDF91CF9134
:100670000895C0981092A301109271011092A001E8
:1006800069E082E891E02ADFC09A8FE99FE0019754
:10069000F1F700C0000008957894662379F09093F4
:1006A000980080939900EAE9F0E080818861808376
:1006B000EDE9F0E08081866080830895909390005A
:1006C00089B98AB188618AB9E5E9F0E080818660FC
:1006D00080830895662341F0EBE9F0E0908195FF77
:1006E000FDCF80939C0008955D9BFECF8CB908954B
:1006F0001F93CF93DF93EC018881882339F0162F65
:100700002196612FE7DF89918111FBCFDF91CF9196
:100710001F9108955058BB27AA270ED0A3C094D08C
:1007200030F099D020F031F49F3F11F41EF489C0CD
:100730000EF4E095E7FB7FC0E92FA5D080F3BA1750
:10074000620773078407950718F071F49EF5BDC022
:100750000EF4E0950B2EBA2FA02D0B01B9019001DC
:100760000C01CA01A0011124FF27591B99F0593F20
:1007700050F4503E68F11A16F040A22F232F342F68
:100780004427585FF3CF469537952795A795F040B6
:100790005395C9F77EF41F16BA0B620B730B840BCB
:1007A000BAF09150A1F0FF0FBB1F661F771F881F83
:1007B000C2F70EC0BA0F621F731F841F48F48795DB
:1007C00077956795B795F7959E3F08F0B3CF9395CA
:1007D000880F08F09927EE0F9795879508955BD0BD
:1007E00088F09F5790F0B92F9927B751A0F0D1F01A
:1007F000660F771F881F991F1AF0BA95C9F712C0A4
:10080000B13081F062D0B1E008955FC0672F782FDA
:100810008827B85F39F0B93FCCF38695779567950F
:10082000B395D9F73EF490958095709561957F4F7B
:100830008F4F9F4F089597F99F6780E870E060E0C1
:1008400008959FEF80EC089500240A941616170669
:1008500018060906089500240A94121613061406B1
:1008600005060895092E0394000C11F4882352F014
:10087000BB0F40F4BF2B11F460FF04C06F5F7F4FCC
:100880008F4F9F4F089557FD9058440F551F59F0B3
:100890005F3F71F04795880F97FB991F61F09F3F6D
:1008A00079F087950895121613061406551FF2CF96
:1008B0004695F1DF08C0161617061806991FF1CFE6
:1008C00086957105610508940895E894BB2766270D
:1008D0007727CB0197F9089566D008F48FEF089534
:1008E0000BD0C0CFB1DF28F0B6DF18F0952309F0A8
:1008F000A2CFA7CF1124EACFC6DFA0F3959FD1F3F3
:10090000950F50E0551F629FF001729FBB27F00DBD
:10091000B11D639FAA27F00DB11DAA1F649F662712
:10092000B00DA11D661F829F2227B00DA11D621F61
:10093000739FB00DA11D621F839FA00D611D221F1B
:10094000749F3327A00D611D231F849F600D211DFF
:10095000822F762F6A2F11249F5750408AF0E1F0A2
:1009600088234AF0EE0FFF1FBB1F661F771F881FEB
:1009700091505040A9F79E3F510570F05CCFA6CF33
:100980005F3FECF3983EDCF3869577956795B795D6
:10099000F795E7959F5FC1F7FE2B880F911D969500
:1009A000879597F90895990F0008550FAA0BE0E86D
:1009B000FEEF16161706E807F907C0F01216130621
:1009C000E407F50798F0621B730B840B950B39F461
:1009D0000A2661F0232B242B252B21F408950A26C7
:1009E00009F4A140A6958FEF811D811D0895F8940B
:0209F000FFCF37
:1009F2000143000100014400010300000000014D19
:100A0200000001FFFFFFFF014300005A5A5A5A5AE1
:100A1200014200FF000000000050696E20436F6E2B
:100A220066696720646F6E652E0A00505332204358
:100A32006F6E66696720646F6E652E0A00557020BE
:100A420000446F776E2000526967687420004C651D
:040A520066742000A6
:00000001FF
